:020000021000EC
:1000000029A80100130000001300000013000000E5
:100010000BC5000025200B0000040B600006B70292
:100020001000938242011303F00F23A06200B70275
:1000300010001303000F23A0620001A0411106C6A7
:10004000C142370310001303430083230300B3F3BB
:100050005300639A7200B702100093824201414339
:1000600023A0620091A8930200023703100013033B
:10007000430083230300B3F35300639B7200B70272
:100080001000938242011303000223A062002DA0FE
:10009000930200043703100013034300832303007B
:1000A000B3F35300639A7200B702100093824201C7
:1000B0001303000423A06200B240410182800000CB
:0400000310000000E9
:00000001FF
