:020000021000EC
:100000000B6000066DA81300000013000000010043
:10001000197106C00AC20EC412C616C81ACA1ECC6E
:1000200022CE26D02AD22ED432D636D83ADA3EDCA8
:1000300042DEC6C0CAC2CEC4D2C6D6C8DACADECC78
:10004000E2CEE6D0EAD2EED4F2D6F6D8FADAFEDC88
:100050000BC50000EF00C01382401241A2413242A2
:10006000C2425243E243724482541255A255325660
:10007000C2565257E257725886481649A649364A20
:10008000C64A564BE64B764C865C165DA65D365EE0
:10009000C65E565FE65F09610B000004411116C69B
:1000A0009302F0FF0BE00206B2424101828041114F
:1000B00016C681420BE00206B242410182809300E3
:1000C00000009301000013020000930200001303DC
:1000D00000009303000013040000930400001305C4
:1000E00000009305000013060000930600001307AC
:1000F0000000930700001308000093080000130994
:10010000000093090000130A0000930A0000130B7B
:100110000000930B0000130C0000930C0000130D63
:100120000000930D0000130E0000930E0000130F4B
:100130000000930F000017050000130565239305C9
:1001400000001306400063D8C500144194C1110596
:100150009105E3CCC5FE130540009305C00163572C
:10016000B500232005001105E34DB5FEED2001A0EB
:10017000000000000000B7071000C8D337071000C8
:100180005C438D83858BEDDF48531375F50F8280BB
:10019000370710001C438D83858B9DEF37071000B8
:1001A0001C439183858BD9E3370710001C4395834B
:1001B000858BC1E7370710001C439983858B89E73E
:1001C000B7071000C8CB828054439982858AE3998F
:1001D000F6FE8D475CCB828054438D82858AE39FF7
:1001E000F6FA834790011D466361F6068347800156
:1001F0001305000193F7F70F138817001378F80F12
:10020000230C0001AA9783C7070093F7F70F5CD36D
:10021000834780016374F600230C0000834790013C
:10022000850793F7F70FA30CF00082805443918267
:10023000858AE39BF6F654CB828054439582858A67
:10024000E39AF6F689475CCB828083470700DD9B03
:100250002300F7008280011126CAB704100083C76B
:10026000040006CE22CC4AC84EC652C456C2DD9BFC
:100270002380F40083D78402056A7D77B3E74701C2
:100280002394F40283D78402FD79FD19F98F93E753
:10029000C7002394F40213070004230DE00083D762
:1002A000840213050004F16AB3F737012394F402C2
:1002B000D9350145C93501457D3D83D7840225499E
:1002C00037041000B3E747012394F40283C7040006
:1002D000938A4ABE93E707012380F40083C7040092
:1002E00093E707022380F40083C7040093E7070421
:1002F0002380F40083C7040093E707F82380F40009
:10030000930469FF93F4F40F1C4C858BF5DF83474E
:10031000040093F7F7072300F400835784021305C2
:100320000004B3F737012314F402B1354945A13570
:10033000268591358357840213871400B3E747015C
:100340002314F40244C89374F70FE31899FC83470D
:100350000400568793E707F82300F40063040700BE
:0C0360007D17EDBF29091379F90F59BF73
:04036C00000000008D
:0400000310000000E9
:00000001FF
