:020000021000EC
:100000000B6000066DA81300000013000000010043
:10001000197106C00AC20EC412C616C81ACA1ECC6E
:1000200022CE26D02AD22ED432D636D83ADA3EDCA8
:1000300042DEC6C0CAC2CEC4D2C6D6C8DACADECC78
:10004000E2CEE6D0EAD2EED4F2D6F6D8FADAFEDC88
:100050000BC50000EF00801882401241A2413242DD
:10006000C2425243E243724482541255A255325660
:10007000C2565257E257725886481649A649364A20
:10008000C64A564BE64B764C865C165DA65D365EE0
:10009000C65E565FE65F09610B000004411116C69B
:1000A0009302F0FF0BE00206B2424101828041114F
:1000B00016C681420BE00206B242410182809300E3
:1000C00000009301000013020000930200001303DC
:1000D00000009303000013040000930400001305C4
:1000E00000009305000013060000930600001307AC
:1000F0000000930700001308000093080000130994
:10010000000093090000130A0000930A0000130B7B
:100110000000930B0000130C0000930C0000130D63
:100120000000930D0000130E0000930E0000130F4B
:100130000000930F0000170500001305A51193059B
:1001400000001306400063D8C500144194C1110596
:100150009105E3CCC5FE130540009305C00063572D
:10016000B500232005001105E34DB5FE692001A06F
:10017000000000000000B7071000314798D3B70710
:1001800001009387C7182324F00082808280B7077C
:1001900010003707F0FFD8CF8280B70701009387A0
:1001A000871A2324F000828005472302E000828022
:1001B0003707100083470702F99B2300F702032348
:1001C00080006303030002838280370710008347A7
:1001D000070293E727002300F70282803707100009
:1001E0001C438983858B91E3828058430983058B67
:1001F000E31CF7FE75BF411106C6B53F493F713F8D
:10020000E93723020000B707100003C607000147C3
:10021000B7051000136646002380C70003C6070019
:10022000136606F82380C7008347400013061700B3
:1002300093F7F70FF5DB23020000D8C9834740008E
:100240001377F60F1306170093F7F70FF1DFE5B7F3
:0402500000000000AA
:0400000310000000E9
:00000001FF
