:020000021000EC
:100000000B6000066DA81300000013000000010043
:10001000197106C00AC20EC412C616C81ACA1ECC6E
:1000200022CE26D02AD22ED432D636D83ADA3EDCA8
:1000300042DEC6C0CAC2CEC4D2C6D6C8DACADECC78
:10004000E2CEE6D0EAD2EED4F2D6F6D8FADAFEDC88
:100050000BC50000EF00201282401241A241324243
:10006000C2425243E243724482541255A255325660
:10007000C2565257E257725886481649A649364A20
:10008000C64A564BE64B764C865C165DA65D365EE0
:10009000C65E565FE65F09610B000004411116C69B
:1000A0009302F0FF0BE00206B2424101828041114F
:1000B00016C681420BE00206B242410182809300E3
:1000C00000009301000013020000930200001303DC
:1000D00000009303000013040000930400001305C4
:1000E00000009305000013060000930600001307AC
:1000F0000000930700001308000093080000130994
:10010000000093090000130A0000930A0000130B7B
:100110000000930B0000130C0000930C0000130D63
:100120000000930D0000130E0000930E0000130F4B
:100130000000930F0000170500001305A50D93059F
:1001400000001306400063D8C500144194C1110596
:100150009105E3CCC5FE13054000930540006357AD
:10016000B500232005001105E34DB5FE952001A043
:10017000000000000000370710001C439183858BAE
:100180008DE3370710001C439583858B95E3370774
:1001900010001C439983858B85E7B7071000C8CBF7
:1001A000828054439182858AE39DF6FC54CB828001
:1001B00054439582858AE39CF6FC89475CCB828018
:1001C00054439982858AE39AF6FC8D475CCB828002
:1001D0003707100083460700B707100093E60601B3
:1001E0002300D7008346070093E606022300D700CA
:1001F0008346070093E606042300D70083460700E2
:1002000093E606F82300D700984FD8CBF5BF00003F
:0402100000000000EA
:0400000310000000E9
:00000001FF
